:020000020000FC
:100000000C942000AA1BBB1B51E107C0AA1FBB1FF9
:10001000A617B70710F0A61BB70B881F991F5A9594
:10002000A9F7809590950895991B79E004C0991FD0
:10003000961708F0961B881F7A95C9F78095089542
:1000400008E00EBF0FEF0DBF00E00093C00008E016
:100050000093C10006E00093C20007E60093C400CD
:1000600000E00093C50019E009E2C80113E008EEC2
:10007000B8010E940200482F20E3420F0E945B005B
:10008000CD0110E004E6B8010E940200482F20E3F1
:10009000420F0E945B00CD0110E00AE0B8010E940F
:1000A0000200482F20E3420F0E945B004A2F420FBC
:1000B0000E945B00FFCF3F934093C6003091C00089
:0800C00035FFFCCF3F910895CC
:00000001FF
